{
  "_format": "hh-sol-artifact-1",
  "contractName": "MultiHopSwapToken",
  "sourceName": "contracts/MultiHopSwapToken.sol",
  "abi": [
    {
      "inputs": [],
      "name": "DAI",
      "outputs": [
        {
          "internalType": "address",
          "name": "",
          "type": "address"
        }
      ],
      "stateMutability": "view",
      "type": "function"
    },
    {
      "inputs": [],
      "name": "USDC",
      "outputs": [
        {
          "internalType": "address",
          "name": "",
          "type": "address"
        }
      ],
      "stateMutability": "view",
      "type": "function"
    },
    {
      "inputs": [],
      "name": "WETH9",
      "outputs": [
        {
          "internalType": "address",
          "name": "",
          "type": "address"
        }
      ],
      "stateMutability": "view",
      "type": "function"
    },
    {
      "inputs": [],
      "name": "poolFee",
      "outputs": [
        {
          "internalType": "uint24",
          "name": "",
          "type": "uint24"
        }
      ],
      "stateMutability": "view",
      "type": "function"
    },
    {
      "inputs": [],
      "name": "routerAddress",
      "outputs": [
        {
          "internalType": "address",
          "name": "",
          "type": "address"
        }
      ],
      "stateMutability": "view",
      "type": "function"
    },
    {
      "inputs": [
        {
          "internalType": "uint256",
          "name": "amountIn",
          "type": "uint256"
        }
      ],
      "name": "swapExactInputMultiHop",
      "outputs": [
        {
          "internalType": "uint256",
          "name": "amountOut",
          "type": "uint256"
        }
      ],
      "stateMutability": "nonpayable",
      "type": "function"
    },
    {
      "inputs": [
        {
          "internalType": "uint256",
          "name": "amountOut",
          "type": "uint256"
        },
        {
          "internalType": "uint256",
          "name": "amountInMaximum",
          "type": "uint256"
        }
      ],
      "name": "swapExactOutputMultihop",
      "outputs": [
        {
          "internalType": "uint256",
          "name": "amountIn",
          "type": "uint256"
        }
      ],
      "stateMutability": "nonpayable",
      "type": "function"
    },
    {
      "inputs": [],
      "name": "swapRouter",
      "outputs": [
        {
          "internalType": "contract ISwapRouter",
          "name": "",
          "type": "address"
        }
      ],
      "stateMutability": "view",
      "type": "function"
    }
  ],
  "bytecode": "0x60a060405273e592427a0aece92de3edee1f18e0157c0586156473ffffffffffffffffffffffffffffffffffffffff1660809073ffffffffffffffffffffffffffffffffffffffff1681525034801561005757600080fd5b50608051611020610096600039600081816101fb015281816102ca01528181610388015281816104350152818161050501526105c101526110206000f3fe608060405234801561001057600080fd5b50600436106100885760003560e01c806357688eda1161005b57806357688eda1461011757806389a3027114610147578063c31c9c0714610165578063e0bab4c41461018357610088565b8063089fe6aa1461008d5780633268cc56146100ab5780633b85cf6a146100c95780634aa4a4fc146100f9575b600080fd5b6100956101a1565b6040516100a291906108c6565b60405180910390f35b6100b36101a7565b6040516100c09190610922565b60405180910390f35b6100e360048036038101906100de9190610978565b6101bf565b6040516100f091906109c7565b60405180910390f35b6101016103e1565b60405161010e9190610922565b60405180910390f35b610131600480360381019061012c91906109e2565b6103f9565b60405161013e91906109c7565b60405180910390f35b61014f6105a7565b60405161015c9190610922565b60405180910390f35b61016d6105bf565b60405161017a9190610a6e565b60405180910390f35b61018b6105e3565b6040516101989190610922565b60405180910390f35b610bb881565b73e592427a0aece92de3edee1f18e0157c0586156481565b60006101e17311fe4b6ae13d2a6055c8d9cf65c55bac32b5d8443330856105fb565b6102207311fe4b6ae13d2a6055c8d9cf65c55bac32b5d8447f000000000000000000000000000000000000000000000000000000000000000084610753565b60006040518060a0016040528073b4fbf271143f4fbf7b91a5ded31805e42b2208d6610bb8732f3a40a3db8a7e3d09b0adfefbce4f6f81927557610bb87311fe4b6ae13d2a6055c8d9cf65c55bac32b5d844604051602001610286959493929190610b07565b60405160208183030381529060405281526020013373ffffffffffffffffffffffffffffffffffffffff1681526020014281526020018581526020018481525090507f000000000000000000000000000000000000000000000000000000000000000073ffffffffffffffffffffffffffffffffffffffff1663f28c0498826040518263ffffffff1660e01b81526004016103219190610c8a565b6020604051808303816000875af1158015610340573d6000803e3d6000fd5b505050506040513d601f19601f820116820180604052508101906103649190610cc1565b9150828210156103da576103ae7311fe4b6ae13d2a6055c8d9cf65c55bac32b5d8447f00000000000000000000000000000000000000000000000000000000000000006000610753565b6103d97311fe4b6ae13d2a6055c8d9cf65c55bac32b5d844303385876103d49190610d1d565b6105fb565b5b5092915050565b73b4fbf271143f4fbf7b91a5ded31805e42b2208d681565b600061041b7311fe4b6ae13d2a6055c8d9cf65c55bac32b5d8443330856105fb565b61045a7311fe4b6ae13d2a6055c8d9cf65c55bac32b5d8447f000000000000000000000000000000000000000000000000000000000000000084610753565b60006040518060a001604052807311fe4b6ae13d2a6055c8d9cf65c55bac32b5d844610bb8732f3a40a3db8a7e3d09b0adfefbce4f6f81927557610bb873b4fbf271143f4fbf7b91a5ded31805e42b2208d66040516020016104c0959493929190610b07565b60405160208183030381529060405281526020013373ffffffffffffffffffffffffffffffffffffffff168152602001428152602001848152602001600081525090507f000000000000000000000000000000000000000000000000000000000000000073ffffffffffffffffffffffffffffffffffffffff1663c04b8d59826040518263ffffffff1660e01b815260040161055c9190610dc7565b6020604051808303816000875af115801561057b573d6000803e3d6000fd5b505050506040513d601f19601f8201168201806040525081019061059f9190610cc1565b915050919050565b732f3a40a3db8a7e3d09b0adfefbce4f6f8192755781565b7f000000000000000000000000000000000000000000000000000000000000000081565b7311fe4b6ae13d2a6055c8d9cf65c55bac32b5d84481565b6000808573ffffffffffffffffffffffffffffffffffffffff166323b872dd60e01b86868660405160240161063293929190610de9565b604051602081830303815290604052907bffffffffffffffffffffffffffffffffffffffffffffffffffffffff19166020820180517bffffffffffffffffffffffffffffffffffffffffffffffffffffffff838183161783525050505060405161069c9190610e5c565b6000604051808303816000865af19150503d80600081146106d9576040519150601f19603f3d011682016040523d82523d6000602084013e6106de565b606091505b509150915081801561070c575060008151148061070b57508080602001905181019061070a9190610eab565b5b5b61074b576040517f08c379a000000000000000000000000000000000000000000000000000000000815260040161074290610f35565b60405180910390fd5b505050505050565b6000808473ffffffffffffffffffffffffffffffffffffffff1663095ea7b360e01b8585604051602401610788929190610f55565b604051602081830303815290604052907bffffffffffffffffffffffffffffffffffffffffffffffffffffffff19166020820180517bffffffffffffffffffffffffffffffffffffffffffffffffffffffff83818316178352505050506040516107f29190610e5c565b6000604051808303816000865af19150503d806000811461082f576040519150601f19603f3d011682016040523d82523d6000602084013e610834565b606091505b509150915081801561086257506000815114806108615750808060200190518101906108609190610eab565b5b5b6108a1576040517f08c379a000000000000000000000000000000000000000000000000000000000815260040161089890610fca565b60405180910390fd5b5050505050565b600062ffffff82169050919050565b6108c0816108a8565b82525050565b60006020820190506108db60008301846108b7565b92915050565b600073ffffffffffffffffffffffffffffffffffffffff82169050919050565b600061090c826108e1565b9050919050565b61091c81610901565b82525050565b60006020820190506109376000830184610913565b92915050565b600080fd5b6000819050919050565b61095581610942565b811461096057600080fd5b50565b6000813590506109728161094c565b92915050565b6000806040838503121561098f5761098e61093d565b5b600061099d85828601610963565b92505060206109ae85828601610963565b9150509250929050565b6109c181610942565b82525050565b60006020820190506109dc60008301846109b8565b92915050565b6000602082840312156109f8576109f761093d565b5b6000610a0684828501610963565b91505092915050565b6000819050919050565b6000610a34610a2f610a2a846108e1565b610a0f565b6108e1565b9050919050565b6000610a4682610a19565b9050919050565b6000610a5882610a3b565b9050919050565b610a6881610a4d565b82525050565b6000602082019050610a836000830184610a5f565b92915050565b60008160601b9050919050565b6000610aa182610a89565b9050919050565b6000610ab382610a96565b9050919050565b610acb610ac682610901565b610aa8565b82525050565b60008160e81b9050919050565b6000610ae982610ad1565b9050919050565b610b01610afc826108a8565b610ade565b82525050565b6000610b138288610aba565b601482019150610b238287610af0565b600382019150610b338286610aba565b601482019150610b438285610af0565b600382019150610b538284610aba565b6014820191508190509695505050505050565b600081519050919050565b600082825260208201905092915050565b60005b83811015610ba0578082015181840152602081019050610b85565b60008484015250505050565b6000601f19601f8301169050919050565b6000610bc882610b66565b610bd28185610b71565b9350610be2818560208601610b82565b610beb81610bac565b840191505092915050565b610bff81610901565b82525050565b610c0e81610942565b82525050565b600060a0830160008301518482036000860152610c318282610bbd565b9150506020830151610c466020860182610bf6565b506040830151610c596040860182610c05565b506060830151610c6c6060860182610c05565b506080830151610c7f6080860182610c05565b508091505092915050565b60006020820190508181036000830152610ca48184610c14565b905092915050565b600081519050610cbb8161094c565b92915050565b600060208284031215610cd757610cd661093d565b5b6000610ce584828501610cac565b91505092915050565b7f4e487b7100000000000000000000000000000000000000000000000000000000600052601160045260246000fd5b6000610d2882610942565b9150610d3383610942565b9250828203905081811115610d4b57610d4a610cee565b5b92915050565b600060a0830160008301518482036000860152610d6e8282610bbd565b9150506020830151610d836020860182610bf6565b506040830151610d966040860182610c05565b506060830151610da96060860182610c05565b506080830151610dbc6080860182610c05565b508091505092915050565b60006020820190508181036000830152610de18184610d51565b905092915050565b6000606082019050610dfe6000830186610913565b610e0b6020830185610913565b610e1860408301846109b8565b949350505050565b600081905092915050565b6000610e3682610b66565b610e408185610e20565b9350610e50818560208601610b82565b80840191505092915050565b6000610e688284610e2b565b915081905092915050565b60008115159050919050565b610e8881610e73565b8114610e9357600080fd5b50565b600081519050610ea581610e7f565b92915050565b600060208284031215610ec157610ec061093d565b5b6000610ecf84828501610e96565b91505092915050565b600082825260208201905092915050565b7f5354460000000000000000000000000000000000000000000000000000000000600082015250565b6000610f1f600383610ed8565b9150610f2a82610ee9565b602082019050919050565b60006020820190508181036000830152610f4e81610f12565b9050919050565b6000604082019050610f6a6000830185610913565b610f7760208301846109b8565b9392505050565b7f5341000000000000000000000000000000000000000000000000000000000000600082015250565b6000610fb4600283610ed8565b9150610fbf82610f7e565b602082019050919050565b60006020820190508181036000830152610fe381610fa7565b905091905056fea26469706673582212203ca6c6e453ff72b59d64cd488b10022d6a6a331030072af051deba5bae2dc2ed64736f6c63430008120033",
  "linkReferences": {},
  "deployedLinkReferences": {}
}