{
  "_format": "hh-sol-artifact-1",
  "contractName": "SingleSwapToken",
  "sourceName": "contracts/SingleSwapToken.sol",
  "abi": [
    {
      "inputs": [],
      "name": "DAI",
      "outputs": [
        {
          "internalType": "address",
          "name": "",
          "type": "address"
        }
      ],
      "stateMutability": "view",
      "type": "function"
    },
    {
      "inputs": [],
      "name": "USDC",
      "outputs": [
        {
          "internalType": "address",
          "name": "",
          "type": "address"
        }
      ],
      "stateMutability": "view",
      "type": "function"
    },
    {
      "inputs": [],
      "name": "WETH9",
      "outputs": [
        {
          "internalType": "address",
          "name": "",
          "type": "address"
        }
      ],
      "stateMutability": "view",
      "type": "function"
    },
    {
      "inputs": [],
      "name": "poolFee",
      "outputs": [
        {
          "internalType": "uint24",
          "name": "",
          "type": "uint24"
        }
      ],
      "stateMutability": "view",
      "type": "function"
    },
    {
      "inputs": [],
      "name": "routerAddress",
      "outputs": [
        {
          "internalType": "address",
          "name": "",
          "type": "address"
        }
      ],
      "stateMutability": "view",
      "type": "function"
    },
    {
      "inputs": [
        {
          "internalType": "uint256",
          "name": "amountIn",
          "type": "uint256"
        }
      ],
      "name": "swapExactInputSingle",
      "outputs": [
        {
          "internalType": "uint256",
          "name": "amountOut",
          "type": "uint256"
        }
      ],
      "stateMutability": "nonpayable",
      "type": "function"
    },
    {
      "inputs": [
        {
          "internalType": "uint256",
          "name": "amountOut",
          "type": "uint256"
        },
        {
          "internalType": "uint256",
          "name": "amountInMaximum",
          "type": "uint256"
        }
      ],
      "name": "swapExactOutputSingle",
      "outputs": [
        {
          "internalType": "uint256",
          "name": "amountIn",
          "type": "uint256"
        }
      ],
      "stateMutability": "nonpayable",
      "type": "function"
    },
    {
      "inputs": [],
      "name": "swapRouter",
      "outputs": [
        {
          "internalType": "contract ISwapRouter",
          "name": "",
          "type": "address"
        }
      ],
      "stateMutability": "view",
      "type": "function"
    }
  ],
  "bytecode": "0x60a060405273e592427a0aece92de3edee1f18e0157c0586156473ffffffffffffffffffffffffffffffffffffffff1660809073ffffffffffffffffffffffffffffffffffffffff1681525034801561005757600080fd5b5060805161114e6100966000396000818161021301528181610301015281816103bd0152818161041b0152818161050801526105c6015261114e6000f3fe608060405234801561001057600080fd5b50600436106100885760003560e01c806389a302711161005b57806389a3027114610117578063c31c9c0714610135578063c4b69a1814610153578063e0bab4c41461018357610088565b8063089fe6aa1461008d5780633268cc56146100ab5780634aa4a4fc146100c957806373bd43ad146100e7575b600080fd5b6100956101a1565b6040516100a29190610a56565b60405180910390f35b6100b36101a7565b6040516100c09190610ab2565b60405180910390f35b6100d16101bf565b6040516100de9190610ab2565b60405180910390f35b61010160048036038101906100fc9190610b08565b6101d7565b60405161010e9190610b44565b60405180910390f35b61011f6103a3565b60405161012c9190610ab2565b60405180910390f35b61013d6103bb565b60405161014a9190610bbe565b60405180910390f35b61016d60048036038101906101689190610bd9565b6103df565b60405161017a9190610b44565b60405180910390f35b61018b61061e565b6040516101989190610ab2565b60405180910390f35b610bb881565b73e592427a0aece92de3edee1f18e0157c0586156481565b73b4fbf271143f4fbf7b91a5ded31805e42b2208d681565b60006101f973b4fbf271143f4fbf7b91a5ded31805e42b2208d6333085610636565b61023873b4fbf271143f4fbf7b91a5ded31805e42b2208d67f00000000000000000000000000000000000000000000000000000000000000008461078e565b600060405180610100016040528073b4fbf271143f4fbf7b91a5ded31805e42b2208d673ffffffffffffffffffffffffffffffffffffffff1681526020017311fe4b6ae13d2a6055c8d9cf65c55bac32b5d84473ffffffffffffffffffffffffffffffffffffffff168152602001610bb862ffffff1681526020013373ffffffffffffffffffffffffffffffffffffffff16815260200142815260200184815260200160008152602001600073ffffffffffffffffffffffffffffffffffffffff1681525090507f000000000000000000000000000000000000000000000000000000000000000073ffffffffffffffffffffffffffffffffffffffff1663414bf389826040518263ffffffff1660e01b81526004016103589190610cf7565b6020604051808303816000875af1158015610377573d6000803e3d6000fd5b505050506040513d601f19601f8201168201806040525081019061039b9190610d28565b915050919050565b7307865c6e87b9f70255377e024ace6630c1eaa37f81565b7f000000000000000000000000000000000000000000000000000000000000000081565b600061040173b4fbf271143f4fbf7b91a5ded31805e42b2208d6333085610636565b61044073b4fbf271143f4fbf7b91a5ded31805e42b2208d67f00000000000000000000000000000000000000000000000000000000000000008461078e565b600060405180610100016040528073b4fbf271143f4fbf7b91a5ded31805e42b2208d673ffffffffffffffffffffffffffffffffffffffff1681526020017311fe4b6ae13d2a6055c8d9cf65c55bac32b5d84473ffffffffffffffffffffffffffffffffffffffff168152602001610bb862ffffff1681526020013373ffffffffffffffffffffffffffffffffffffffff168152602001428152602001858152602001848152602001600073ffffffffffffffffffffffffffffffffffffffff1681525090507f000000000000000000000000000000000000000000000000000000000000000073ffffffffffffffffffffffffffffffffffffffff1663db3e2198826040518263ffffffff1660e01b815260040161055f9190610df7565b6020604051808303816000875af115801561057e573d6000803e3d6000fd5b505050506040513d601f19601f820116820180604052508101906105a29190610d28565b915082821015610617576105ec73b4fbf271143f4fbf7b91a5ded31805e42b2208d67f0000000000000000000000000000000000000000000000000000000000000000600061078e565b61061673b4fbf271143f4fbf7b91a5ded31805e42b2208d63384866106119190610e42565b6108e3565b5b5092915050565b7311fe4b6ae13d2a6055c8d9cf65c55bac32b5d84481565b6000808573ffffffffffffffffffffffffffffffffffffffff166323b872dd60e01b86868660405160240161066d93929190610e76565b604051602081830303815290604052907bffffffffffffffffffffffffffffffffffffffffffffffffffffffff19166020820180517bffffffffffffffffffffffffffffffffffffffffffffffffffffffff83818316178352505050506040516106d79190610f1e565b6000604051808303816000865af19150503d8060008114610714576040519150601f19603f3d011682016040523d82523d6000602084013e610719565b606091505b509150915081801561074757506000815114806107465750808060200190518101906107459190610f6d565b5b5b610786576040517f08c379a000000000000000000000000000000000000000000000000000000000815260040161077d90610ff7565b60405180910390fd5b505050505050565b6000808473ffffffffffffffffffffffffffffffffffffffff1663095ea7b360e01b85856040516024016107c3929190611017565b604051602081830303815290604052907bffffffffffffffffffffffffffffffffffffffffffffffffffffffff19166020820180517bffffffffffffffffffffffffffffffffffffffffffffffffffffffff838183161783525050505060405161082d9190610f1e565b6000604051808303816000865af19150503d806000811461086a576040519150601f19603f3d011682016040523d82523d6000602084013e61086f565b606091505b509150915081801561089d575060008151148061089c57508080602001905181019061089b9190610f6d565b5b5b6108dc576040517f08c379a00000000000000000000000000000000000000000000000000000000081526004016108d39061108c565b60405180910390fd5b5050505050565b6000808473ffffffffffffffffffffffffffffffffffffffff1663a9059cbb60e01b8585604051602401610918929190611017565b604051602081830303815290604052907bffffffffffffffffffffffffffffffffffffffffffffffffffffffff19166020820180517bffffffffffffffffffffffffffffffffffffffffffffffffffffffff83818316178352505050506040516109829190610f1e565b6000604051808303816000865af19150503d80600081146109bf576040519150601f19603f3d011682016040523d82523d6000602084013e6109c4565b606091505b50915091508180156109f257506000815114806109f15750808060200190518101906109f09190610f6d565b5b5b610a31576040517f08c379a0000000000000000000000000000000000000000000000000000000008152600401610a28906110f8565b60405180910390fd5b5050505050565b600062ffffff82169050919050565b610a5081610a38565b82525050565b6000602082019050610a6b6000830184610a47565b92915050565b600073ffffffffffffffffffffffffffffffffffffffff82169050919050565b6000610a9c82610a71565b9050919050565b610aac81610a91565b82525050565b6000602082019050610ac76000830184610aa3565b92915050565b600080fd5b6000819050919050565b610ae581610ad2565b8114610af057600080fd5b50565b600081359050610b0281610adc565b92915050565b600060208284031215610b1e57610b1d610acd565b5b6000610b2c84828501610af3565b91505092915050565b610b3e81610ad2565b82525050565b6000602082019050610b596000830184610b35565b92915050565b6000819050919050565b6000610b84610b7f610b7a84610a71565b610b5f565b610a71565b9050919050565b6000610b9682610b69565b9050919050565b6000610ba882610b8b565b9050919050565b610bb881610b9d565b82525050565b6000602082019050610bd36000830184610baf565b92915050565b60008060408385031215610bf057610bef610acd565b5b6000610bfe85828601610af3565b9250506020610c0f85828601610af3565b9150509250929050565b610c2281610a91565b82525050565b610c3181610a38565b82525050565b610c4081610ad2565b82525050565b610c4f81610a71565b82525050565b61010082016000820151610c6c6000850182610c19565b506020820151610c7f6020850182610c19565b506040820151610c926040850182610c28565b506060820151610ca56060850182610c19565b506080820151610cb86080850182610c37565b5060a0820151610ccb60a0850182610c37565b5060c0820151610cde60c0850182610c37565b5060e0820151610cf160e0850182610c46565b50505050565b600061010082019050610d0d6000830184610c55565b92915050565b600081519050610d2281610adc565b92915050565b600060208284031215610d3e57610d3d610acd565b5b6000610d4c84828501610d13565b91505092915050565b61010082016000820151610d6c6000850182610c19565b506020820151610d7f6020850182610c19565b506040820151610d926040850182610c28565b506060820151610da56060850182610c19565b506080820151610db86080850182610c37565b5060a0820151610dcb60a0850182610c37565b5060c0820151610dde60c0850182610c37565b5060e0820151610df160e0850182610c46565b50505050565b600061010082019050610e0d6000830184610d55565b92915050565b7f4e487b7100000000000000000000000000000000000000000000000000000000600052601160045260246000fd5b6000610e4d82610ad2565b9150610e5883610ad2565b9250828203905081811115610e7057610e6f610e13565b5b92915050565b6000606082019050610e8b6000830186610aa3565b610e986020830185610aa3565b610ea56040830184610b35565b949350505050565b600081519050919050565b600081905092915050565b60005b83811015610ee1578082015181840152602081019050610ec6565b60008484015250505050565b6000610ef882610ead565b610f028185610eb8565b9350610f12818560208601610ec3565b80840191505092915050565b6000610f2a8284610eed565b915081905092915050565b60008115159050919050565b610f4a81610f35565b8114610f5557600080fd5b50565b600081519050610f6781610f41565b92915050565b600060208284031215610f8357610f82610acd565b5b6000610f9184828501610f58565b91505092915050565b600082825260208201905092915050565b7f5354460000000000000000000000000000000000000000000000000000000000600082015250565b6000610fe1600383610f9a565b9150610fec82610fab565b602082019050919050565b6000602082019050818103600083015261101081610fd4565b9050919050565b600060408201905061102c6000830185610aa3565b6110396020830184610b35565b9392505050565b7f5341000000000000000000000000000000000000000000000000000000000000600082015250565b6000611076600283610f9a565b915061108182611040565b602082019050919050565b600060208201905081810360008301526110a581611069565b9050919050565b7f5354000000000000000000000000000000000000000000000000000000000000600082015250565b60006110e2600283610f9a565b91506110ed826110ac565b602082019050919050565b60006020820190508181036000830152611111816110d5565b905091905056fea2646970667358221220ac92735ef351bf8e415a1b268b8875808469bf76e043581c1a02012b08db70ab64736f6c63430008120033",
  "linkReferences": {},
  "deployedLinkReferences": {}
}